{
  "_format": "hh-sol-artifact-1",
  "contractName": "BlockHash",
  "sourceName": "contracts/BlockHash.sol",
  "abi": [
    {
      "inputs": [],
      "stateMutability": "nonpayable",
      "type": "constructor"
    },
    {
      "anonymous": false,
      "inputs": [
        {
          "indexed": false,
          "internalType": "string",
          "name": "blogId",
          "type": "string"
        },
        {
          "indexed": false,
          "internalType": "address",
          "name": "clapper",
          "type": "address"
        }
      ],
      "name": "Clapped",
      "type": "event"
    },
    {
      "inputs": [
        {
          "internalType": "string",
          "name": "_blogId",
          "type": "string"
        }
      ],
      "name": "doClap",
      "outputs": [],
      "stateMutability": "nonpayable",
      "type": "function"
    },
    {
      "inputs": [
        {
          "internalType": "string",
          "name": "_blogId",
          "type": "string"
        }
      ],
      "name": "getClaps",
      "outputs": [
        {
          "components": [
            {
              "internalType": "address",
              "name": "clapper",
              "type": "address"
            },
            {
              "internalType": "uint256",
              "name": "clap",
              "type": "uint256"
            }
          ],
          "internalType": "struct BlockHash.Blog[]",
          "name": "",
          "type": "tuple[]"
        }
      ],
      "stateMutability": "view",
      "type": "function"
    }
  ],
  "bytecode": "0x608060405234801561001057600080fd5b50600160008190555033600260006101000a81548173ffffffffffffffffffffffffffffffffffffffff021916908373ffffffffffffffffffffffffffffffffffffffff160217905550610907806100696000396000f3fe608060405234801561001057600080fd5b50600436106100365760003560e01c80638c70a5c71461003b578063b995fa9214610057575b600080fd5b610055600480360381019061005091906104d0565b610087565b005b610071600480360381019061006c91906104d0565b610299565b60405161007e9190610651565b60405180910390f35b600260005414156100cd576040517f08c379a00000000000000000000000000000000000000000000000000000000081526004016100c4906106d0565b60405180910390fd5b60026000819055506000815111610119576040517f08c379a00000000000000000000000000000000000000000000000000000000081526004016101109061073c565b60405180910390fd5b600073ffffffffffffffffffffffffffffffffffffffff163373ffffffffffffffffffffffffffffffffffffffff161415610189576040517f08c379a0000000000000000000000000000000000000000000000000000000008152600401610180906107a8565b60405180910390fd5b600060405180604001604052803373ffffffffffffffffffffffffffffffffffffffff168152602001600181525090506003826040516101c99190610842565b908152602001604051809103902081908060018154018082558091505060019003906000526020600020906002020160009091909190915060008201518160000160006101000a81548173ffffffffffffffffffffffffffffffffffffffff021916908373ffffffffffffffffffffffffffffffffffffffff1602179055506020820151816001015550507ffdcb63d300be033b337032906f90a2a8a1b00cd3a6a584ece67ca66d51ffc08b82336040516102859291906108a1565b60405180910390a150600160008190555050565b60606003826040516102ab9190610842565b9081526020016040518091039020805480602002602001604051908101604052809291908181526020016000905b8282101561036b57838290600052602060002090600202016040518060400160405290816000820160009054906101000a900473ffffffffffffffffffffffffffffffffffffffff1673ffffffffffffffffffffffffffffffffffffffff1673ffffffffffffffffffffffffffffffffffffffff168152602001600182015481525050815260200190600101906102d9565b505050509050919050565b6000604051905090565b600080fd5b600080fd5b600080fd5b600080fd5b6000601f19601f8301169050919050565b7f4e487b7100000000000000000000000000000000000000000000000000000000600052604160045260246000fd5b6103dd82610394565b810181811067ffffffffffffffff821117156103fc576103fb6103a5565b5b80604052505050565b600061040f610376565b905061041b82826103d4565b919050565b600067ffffffffffffffff82111561043b5761043a6103a5565b5b61044482610394565b9050602081019050919050565b82818337600083830152505050565b600061047361046e84610420565b610405565b90508281526020810184848401111561048f5761048e61038f565b5b61049a848285610451565b509392505050565b600082601f8301126104b7576104b661038a565b5b81356104c7848260208601610460565b91505092915050565b6000602082840312156104e6576104e5610380565b5b600082013567ffffffffffffffff81111561050457610503610385565b5b610510848285016104a2565b91505092915050565b600081519050919050565b600082825260208201905092915050565b6000819050602082019050919050565b600073ffffffffffffffffffffffffffffffffffffffff82169050919050565b600061057082610545565b9050919050565b61058081610565565b82525050565b6000819050919050565b61059981610586565b82525050565b6040820160008201516105b56000850182610577565b5060208201516105c86020850182610590565b50505050565b60006105da838361059f565b60408301905092915050565b6000602082019050919050565b60006105fe82610519565b6106088185610524565b935061061383610535565b8060005b8381101561064457815161062b88826105ce565b9750610636836105e6565b925050600181019050610617565b5085935050505092915050565b6000602082019050818103600083015261066b81846105f3565b905092915050565b600082825260208201905092915050565b7f5265656e7472616e637947756172643a207265656e7472616e742063616c6c00600082015250565b60006106ba601f83610673565b91506106c582610684565b602082019050919050565b600060208201905081810360008301526106e9816106ad565b9050919050565b7f626c6f67206964206e6f7420666f756e64000000000000000000000000000000600082015250565b6000610726601183610673565b9150610731826106f0565b602082019050919050565b6000602082019050818103600083015261075581610719565b9050919050565b7f53656e6465722041646472657373206e6f7420666f756e640000000000000000600082015250565b6000610792601883610673565b915061079d8261075c565b602082019050919050565b600060208201905081810360008301526107c181610785565b9050919050565b600081519050919050565b600081905092915050565b60005b838110156107fc5780820151818401526020810190506107e1565b8381111561080b576000848401525b50505050565b600061081c826107c8565b61082681856107d3565b93506108368185602086016107de565b80840191505092915050565b600061084e8284610811565b915081905092915050565b6000610864826107c8565b61086e8185610673565b935061087e8185602086016107de565b61088781610394565b840191505092915050565b61089b81610565565b82525050565b600060408201905081810360008301526108bb8185610859565b90506108ca6020830184610892565b939250505056fea2646970667358221220aed093fbe06a91845d7056ee4308b231121653814a51aab7ae0cfd7d38da48b064736f6c634300080a0033",
  "linkReferences": {},
  "deployedLinkReferences": {}
}